:020000040000FA
:020000000528D1
:040002000034003492
:080008000900031383168E1595
:1000100080308100FF308500860103138312073092
:100020009F008B010301051D1628013E851D19281F
:10003000023E051E1C28043E851E1F28083EA00007
:10004000003A031D2B2886170617861606168615F6
:100050000615861012282008013A031D372886133A
:100060000617861606128611061186101228200819
:10007000023A031D432886170617861206168615B0
:100080000611861412282008033A031D4F288617EC
:1000900006178616061686110611861412282008E1
:1000A000043A031D5B28861306178616061286116E
:1000B0000615861412282008053A031D672886179E
:1000C00006138616061686110615861412282008B1
:1000D000063A031D7328861706138616061686151C
:1000E0000615861412282008073A031D7F28861754
:1000F0000617861606128611061186101228200889
:10010000083A031D8B2886170617861606168615CD
:100110000615861412282008093A031D9728861709
:100120000617861606128611061586141228200850
:100130000A3A031DA3288617061786160612861587
:1001400006158614122820080B3A031DAF288613C3
:10015000061386160616861506158614122820081C
:100160000C3A031DBB288617061386120616861541
:1001700006158610122820080D3A031DC72886137D
:1001800006178616061686150611861412282008EC
:100190000E3A031DD32886170613861206168615F7
:1001A00006158614122820080F3A031D12288617F8
:0E01B0000613861206128615061586141228EE
:02400E00503F21
:00000001FF
