:020000040000FA
:020000000528D1
:040002000034003492
:080008000900031383168E1595
:1000100080308100FF308500FF308600031383129B
:1000200007309F0000308B000530043EFE30043E58
:10003000FD30033E1F30013E05308C0004300C07BC
:100040000F30073C07300F3C0F308C0007300C029C
:1000500007300A3907308C000A300C0507300A389F
:1000600007308C000A300C0407300A3A07308C0045
:100070000A300C0607308C000C09FE308C000C0F87
:1000800003018C01FF308C000C0F03018C01073041
:100090008C000C0309308C000C0B03018C01013027
:0A00A0008C000C0B03018C011428E6
:02400E00503F21
:00000001FF
